{
    "_format": "hh-sol-artifact-1",
    "contractName": "ArbitrageBot",
    "sourceName": "contracts/ArbitrageBot.sol",
    "abi": [
        {
            "inputs": [
                {
                    "internalType": "address",
                    "name": "_provider",
                    "type": "address"
                }
            ],
            "stateMutability": "nonpayable",
            "type": "constructor"
        },
        {
            "inputs": [
                {
                    "internalType": "address",
                    "name": "owner",
                    "type": "address"
                }
            ],
            "name": "OwnableInvalidOwner",
            "type": "error"
        },
        {
            "inputs": [
                {
                    "internalType": "address",
                    "name": "account",
                    "type": "address"
                }
            ],
            "name": "OwnableUnauthorizedAccount",
            "type": "error"
        },
        {
            "anonymous": false,
            "inputs": [
                {
                    "indexed": false,
                    "internalType": "address",
                    "name": "providerAddress",
                    "type": "address"
                }
            ],
            "name": "ConstructorLog",
            "type": "event"
        },
        {
            "anonymous": false,
            "inputs": [
                {
                    "indexed": false,
                    "internalType": "string",
                    "name": "message",
                    "type": "string"
                },
                {
                    "indexed": false,
                    "internalType": "address",
                    "name": "value",
                    "type": "address"
                }
            ],
            "name": "DebugLog",
            "type": "event"
        },
        {
            "anonymous": false,
            "inputs": [
                {
                    "indexed": true,
                    "internalType": "address",
                    "name": "previousOwner",
                    "type": "address"
                },
                {
                    "indexed": true,
                    "internalType": "address",
                    "name": "newOwner",
                    "type": "address"
                }
            ],
            "name": "OwnershipTransferred",
            "type": "event"
        },
        {
            "inputs": [],
            "name": "ADDRESSES_PROVIDER",
            "outputs": [
                {
                    "internalType": "contract IPoolAddressesProvider",
                    "name": "",
                    "type": "address"
                }
            ],
            "stateMutability": "view",
            "type": "function"
        },
        {
            "inputs": [],
            "name": "POOL",
            "outputs": [
                {
                    "internalType": "contract IPool",
                    "name": "",
                    "type": "address"
                }
            ],
            "stateMutability": "view",
            "type": "function"
        },
        {
            "inputs": [
                {
                    "internalType": "address",
                    "name": "asset",
                    "type": "address"
                },
                {
                    "internalType": "uint256",
                    "name": "amount",
                    "type": "uint256"
                },
                {
                    "internalType": "uint256",
                    "name": "premium",
                    "type": "uint256"
                },
                {
                    "internalType": "address",
                    "name": "",
                    "type": "address"
                },
                {
                    "internalType": "bytes",
                    "name": "params",
                    "type": "bytes"
                }
            ],
            "name": "executeOperation",
            "outputs": [
                {
                    "internalType": "bool",
                    "name": "",
                    "type": "bool"
                }
            ],
            "stateMutability": "nonpayable",
            "type": "function"
        },
        {
            "inputs": [],
            "name": "owner",
            "outputs": [
                {
                    "internalType": "address",
                    "name": "",
                    "type": "address"
                }
            ],
            "stateMutability": "view",
            "type": "function"
        },
        {
            "inputs": [],
            "name": "renounceOwnership",
            "outputs": [],
            "stateMutability": "nonpayable",
            "type": "function"
        },
        {
            "inputs": [
                {
                    "internalType": "address",
                    "name": "token",
                    "type": "address"
                },
                {
                    "internalType": "uint256",
                    "name": "amount",
                    "type": "uint256"
                },
                {
                    "internalType": "bytes",
                    "name": "params",
                    "type": "bytes"
                }
            ],
            "name": "requestFlashLoan",
            "outputs": [],
            "stateMutability": "nonpayable",
            "type": "function"
        },
        {
            "inputs": [
                {
                    "internalType": "address",
                    "name": "newOwner",
                    "type": "address"
                }
            ],
            "name": "transferOwnership",
            "outputs": [],
            "stateMutability": "nonpayable",
            "type": "function"
        }
    ],
    "bytecode": "0x60c06040523480156200001157600080fd5b506040516200183f3803806200183f833981810160405281019062000037919062000341565b33818073ffffffffffffffffffffffffffffffffffffffff1660808173ffffffffffffffffffffffffffffffffffffffff16815250508073ffffffffffffffffffffffffffffffffffffffff1663026b1d5f6040518163ffffffff1660e01b8152600401602060405180830381865afa158015620000b9573d6000803e3d6000fd5b505050506040513d601f19601f82011682018060405250810190620000df919062000341565b73ffffffffffffffffffffffffffffffffffffffff1660a08173ffffffffffffffffffffffffffffffffffffffff168152505050600073ffffffffffffffffffffffffffffffffffffffff168173ffffffffffffffffffffffffffffffffffffffff1603620001885760006040517f1e4fbdf70000000000000000000000000000000000000000000000000000000081526004016200017f919062000384565b60405180910390fd5b62000199816200021360201b60201c565b507f42c5c5392f1cc52a311cb73e5bdb7a6ecca0ce9b627fe4d65630e5f170d3a25181604051620001cb919062000428565b60405180910390a17f42c5c5392f1cc52a311cb73e5bdb7a6ecca0ce9b627fe4d65630e5f170d3a25133604051620002049190620004aa565b60405180910390a150620004dc565b60008060009054906101000a900473ffffffffffffffffffffffffffffffffffffffff169050816000806101000a81548173ffffffffffffffffffffffffffffffffffffffff021916908373ffffffffffffffffffffffffffffffffffffffff1602179055508173ffffffffffffffffffffffffffffffffffffffff168173ffffffffffffffffffffffffffffffffffffffff167f8be0079c531659141344cd1fd0a4f28419497f9722a3daafe3b4186f6b6457e060405160405180910390a35050565b600080fd5b600073ffffffffffffffffffffffffffffffffffffffff82169050919050565b60006200030982620002dc565b9050919050565b6200031b81620002fc565b81146200032757600080fd5b50565b6000815190506200033b8162000310565b92915050565b6000602082840312156200035a5762000359620002d7565b5b60006200036a848285016200032a565b91505092915050565b6200037e81620002fc565b82525050565b60006020820190506200039b600083018462000373565b92915050565b600082825260208201905092915050565b7f496e697469616c697a696e6720466c6173684c6f616e53696d706c655265636560008201527f697665724261736520776974682070726f766964657200000000000000000000602082015250565b600062000410603683620003a1565b91506200041d82620003b2565b604082019050919050565b60006040820190508181036000830152620004438162000401565b905062000454602083018462000373565b92915050565b7f53657474696e67206f776e657220746f00000000000000000000000000000000600082015250565b600062000492601083620003a1565b91506200049f826200045a565b602082019050919050565b60006040820190508181036000830152620004c58162000483565b9050620004d6602083018462000373565b92915050565b60805160a05161132f6200051060003960008181610650015281816106ee015261079e01526000610150015261132f6000f3fe608060405234801561001057600080fd5b506004361061007d5760003560e01c8063715018a61161005b578063715018a6146100ec5780637535d246146100f65780638da5cb5b14610114578063f2fde38b146101325761007d565b80630542975c146100825780631b11d0ff146100a05780635107d61e146100d0575b600080fd5b61008a61014e565b6040516100979190610a41565b60405180910390f35b6100ba60048036038101906100b59190610b49565b610172565b6040516100c79190610bfe565b60405180910390f35b6100ea60048036038101906100e59190610c19565b6106e4565b005b6100f4610788565b005b6100fe61079c565b60405161010b9190610cae565b60405180910390f35b61011c6107c0565b6040516101299190610cd8565b60405180910390f35b61014c60048036038101906101479190610cf3565b6107e9565b005b7f000000000000000000000000000000000000000000000000000000000000000081565b60008083838101906101849190610e51565b9050806000015173ffffffffffffffffffffffffffffffffffffffff1663095ea7b38260400151896040518363ffffffff1660e01b81526004016101c9929190610e8d565b6020604051808303816000875af11580156101e8573d6000803e3d6000fd5b505050506040513d601f19601f8201168201806040525081019061020c9190610ee2565b506000600267ffffffffffffffff81111561022a57610229610d36565b5b6040519080825280602002602001820160405280156102585781602001602082028036833780820191505090505b50905081600001518160008151811061027457610273610f0f565b5b602002602001019073ffffffffffffffffffffffffffffffffffffffff16908173ffffffffffffffffffffffffffffffffffffffff16815250508160200151816001815181106102c7576102c6610f0f565b5b602002602001019073ffffffffffffffffffffffffffffffffffffffff16908173ffffffffffffffffffffffffffffffffffffffff1681525050816040015173ffffffffffffffffffffffffffffffffffffffff166338ed17398984608001518430426040518663ffffffff1660e01b815260040161034a959493929190610ffc565b6000604051808303816000875af1158015610369573d6000803e3d6000fd5b505050506040513d6000823e3d601f19601f82011682018060405250810190610392919061112e565b506000826020015173ffffffffffffffffffffffffffffffffffffffff166370a08231306040518263ffffffff1660e01b81526004016103d29190610cd8565b602060405180830381865afa1580156103ef573d6000803e3d6000fd5b505050506040513d601f19601f820116820180604052508101906104139190611177565b9050826020015173ffffffffffffffffffffffffffffffffffffffff1663095ea7b38460600151836040518363ffffffff1660e01b8152600401610458929190610e8d565b6020604051808303816000875af1158015610477573d6000803e3d6000fd5b505050506040513d601f19601f8201168201806040525081019061049b9190610ee2565b506000600267ffffffffffffffff8111156104b9576104b8610d36565b5b6040519080825280602002602001820160405280156104e75781602001602082028036833780820191505090505b50905083602001518160008151811061050357610502610f0f565b5b602002602001019073ffffffffffffffffffffffffffffffffffffffff16908173ffffffffffffffffffffffffffffffffffffffff168152505083600001518160018151811061055657610555610f0f565b5b602002602001019073ffffffffffffffffffffffffffffffffffffffff16908173ffffffffffffffffffffffffffffffffffffffff1681525050836060015173ffffffffffffffffffffffffffffffffffffffff166338ed1739838660a001518430426040518663ffffffff1660e01b81526004016105d9959493929190610ffc565b6000604051808303816000875af11580156105f8573d6000803e3d6000fd5b505050506040513d6000823e3d601f19601f82011682018060405250810190610621919061112e565b506000898b61063091906111d3565b90508b73ffffffffffffffffffffffffffffffffffffffff1663095ea7b37f0000000000000000000000000000000000000000000000000000000000000000836040518363ffffffff1660e01b815260040161068d929190610e8d565b6020604051808303816000875af11580156106ac573d6000803e3d6000fd5b505050506040513d601f19601f820116820180604052508101906106d09190610ee2565b506001955050505050509695505050505050565b6106ec61086f565b7f000000000000000000000000000000000000000000000000000000000000000073ffffffffffffffffffffffffffffffffffffffff166342b0b77c308686868660006040518763ffffffff1660e01b81526004016107509695949392919061129d565b600060405180830381600087803b15801561076a57600080fd5b505af115801561077e573d6000803e3d6000fd5b5050505050505050565b61079061086f565b61079a60006108f6565b565b7f000000000000000000000000000000000000000000000000000000000000000081565b60008060009054906101000a900473ffffffffffffffffffffffffffffffffffffffff16905090565b6107f161086f565b600073ffffffffffffffffffffffffffffffffffffffff168173ffffffffffffffffffffffffffffffffffffffff16036108635760006040517f1e4fbdf700000000000000000000000000000000000000000000000000000000815260040161085a9190610cd8565b60405180910390fd5b61086c816108f6565b50565b6108776109ba565b73ffffffffffffffffffffffffffffffffffffffff166108956107c0565b73ffffffffffffffffffffffffffffffffffffffff16146108f4576108b86109ba565b6040517f118cdaa70000000000000000000000000000000000000000000000000000000081526004016108eb9190610cd8565b60405180910390fd5b565b60008060009054906101000a900473ffffffffffffffffffffffffffffffffffffffff169050816000806101000a81548173ffffffffffffffffffffffffffffffffffffffff021916908373ffffffffffffffffffffffffffffffffffffffff1602179055508173ffffffffffffffffffffffffffffffffffffffff168173ffffffffffffffffffffffffffffffffffffffff167f8be0079c531659141344cd1fd0a4f28419497f9722a3daafe3b4186f6b6457e060405160405180910390a35050565b600033905090565b600073ffffffffffffffffffffffffffffffffffffffff82169050919050565b6000819050919050565b6000610a07610a026109fd846109c2565b6109e2565b6109c2565b9050919050565b6000610a19826109ec565b9050919050565b6000610a2b82610a0e565b9050919050565b610a3b81610a20565b82525050565b6000602082019050610a566000830184610a32565b92915050565b6000604051905090565b600080fd5b600080fd5b6000610a7b826109c2565b9050919050565b610a8b81610a70565b8114610a9657600080fd5b50565b600081359050610aa881610a82565b92915050565b6000819050919050565b610ac181610aae565b8114610acc57600080fd5b50565b600081359050610ade81610ab8565b92915050565b600080fd5b600080fd5b600080fd5b60008083601f840112610b0957610b08610ae4565b5b8235905067ffffffffffffffff811115610b2657610b25610ae9565b5b602083019150836001820283011115610b4257610b41610aee565b5b9250929050565b60008060008060008060a08789031215610b6657610b65610a66565b5b6000610b7489828a01610a99565b9650506020610b8589828a01610acf565b9550506040610b9689828a01610acf565b9450506060610ba789828a01610a99565b935050608087013567ffffffffffffffff811115610bc857610bc7610a6b565b5b610bd489828a01610af3565b92509250509295509295509295565b60008115159050919050565b610bf881610be3565b82525050565b6000602082019050610c136000830184610bef565b92915050565b60008060008060608587031215610c3357610c32610a66565b5b6000610c4187828801610a99565b9450506020610c5287828801610acf565b935050604085013567ffffffffffffffff811115610c7357610c72610a6b565b5b610c7f87828801610af3565b925092505092959194509250565b6000610c9882610a0e565b9050919050565b610ca881610c8d565b82525050565b6000602082019050610cc36000830184610c9f565b92915050565b610cd281610a70565b82525050565b6000602082019050610ced6000830184610cc9565b92915050565b600060208284031215610d0957610d08610a66565b5b6000610d1784828501610a99565b91505092915050565b600080fd5b6000601f19601f8301169050919050565b7f4e487b7100000000000000000000000000000000000000000000000000000000600052604160045260246000fd5b610d6e82610d25565b810181811067ffffffffffffffff82111715610d8d57610d8c610d36565b5b80604052505050565b6000610da0610a5c565b9050610dac8282610d65565b919050565b600060c08284031215610dc757610dc6610d20565b5b610dd160c0610d96565b90506000610de184828501610a99565b6000830152506020610df584828501610a99565b6020830152506040610e0984828501610a99565b6040830152506060610e1d84828501610a99565b6060830152506080610e3184828501610acf565b60808301525060a0610e4584828501610acf565b60a08301525092915050565b600060c08284031215610e6757610e66610a66565b5b6000610e7584828501610db1565b91505092915050565b610e8781610aae565b82525050565b6000604082019050610ea26000830185610cc9565b610eaf6020830184610e7e565b9392505050565b610ebf81610be3565b8114610eca57600080fd5b50565b600081519050610edc81610eb6565b92915050565b600060208284031215610ef857610ef7610a66565b5b6000610f0684828501610ecd565b91505092915050565b7f4e487b7100000000000000000000000000000000000000000000000000000000600052603260045260246000fd5b600081519050919050565b600082825260208201905092915050565b6000819050602082019050919050565b610f7381610a70565b82525050565b6000610f858383610f6a565b60208301905092915050565b6000602082019050919050565b6000610fa982610f3e565b610fb38185610f49565b9350610fbe83610f5a565b8060005b83811015610fef578151610fd68882610f79565b9750610fe183610f91565b925050600181019050610fc2565b5085935050505092915050565b600060a0820190506110116000830188610e7e565b61101e6020830187610e7e565b81810360408301526110308186610f9e565b905061103f6060830185610cc9565b61104c6080830184610e7e565b9695505050505050565b600067ffffffffffffffff82111561107157611070610d36565b5b602082029050602081019050919050565b60008151905061109181610ab8565b92915050565b60006110aa6110a584611056565b610d96565b905080838252602082019050602084028301858111156110cd576110cc610aee565b5b835b818110156110f657806110e28882611082565b8452602084019350506020810190506110cf565b5050509392505050565b600082601f83011261111557611114610ae4565b5b8151611125848260208601611097565b91505092915050565b60006020828403121561114457611143610a66565b5b600082015167ffffffffffffffff81111561116257611161610a6b565b5b61116e84828501611100565b91505092915050565b60006020828403121561118d5761118c610a66565b5b600061119b84828501611082565b91505092915050565b7f4e487b7100000000000000000000000000000000000000000000000000000000600052601160045260246000fd5b60006111de82610aae565b91506111e983610aae565b9250828201905080821115611201576112006111a4565b5b92915050565b600082825260208201905092915050565b82818337600083830152505050565b60006112338385611207565b9350611240838584611218565b61124983610d25565b840190509392505050565b6000819050919050565b600061ffff82169050919050565b600061128761128261127d84611254565b6109e2565b61125e565b9050919050565b6112978161126c565b82525050565b600060a0820190506112b26000830189610cc9565b6112bf6020830188610cc9565b6112cc6040830187610e7e565b81810360608301526112df818587611227565b90506112ee608083018461128e565b97965050505050505056fea26469706673582212201afa8705402f9ac79dbc87b92f1275dd25842b309924b8d7d83827dd73fda1e564736f6c63430008150033",
    "linkReferences": {},
    "deployedLinkReferences": {}
}